:020000040800F2
:100000000000022061500008B1500008B150000803
:10001000B1500008B1500008B150000800000000C5
:10002000000000000000000000000000F54C000887
:10003000B150000800000000F74C0008F94C00081F
:10004000B1500008B1500008B1500008B15000088C
:10005000B1500008B1500008B1500008B15000087C
:10006000B1500008B1500008B1500008B15000086C
:10007000B1500008B1500008B1500008B15000085C
:10008000B1500008B1500008B1500008B15000084C
:10009000B1500008B1500008B1500008B15000083C
:1000A000B1500008B1500008B1500008B15000082C
:1000B000054D0008154D0008B1500008B15000086A
:1000C000B1500008B1500008B1500008B15000080C
:1000D000B1500008B1500008B1500008B1500008FC
:1000E000B1500008B1500008B1500008B1500008EC
:1000F000B1500008B1500008B1500008B1500008DC
:10010000B1500008B1500008B1500008B1500008CB
:10011000B1500008B1500008B1500008B1500008BB
:10012000B1500008B1500008B1500008B1500008AB
:10013000B1500008B1500008B1500008B15000089B
:10014000B1500008B1500008B1500008254D00081A
:10015000B1500008B1500008B1500008B15000087B
:10016000B1500008B1500008B1500008B15000086B
:10017000B1500008B1500008B15000080000000064
:08018000B1500008B150000865
:1001880010B5054C237833B9044B13B10448AFF3C9
:1001980000800123237010BD9000002000000000A3
:1001A800AC52000808B5034B1BB103490348AFF331
:1001B800008008BD0000000094000020AC52000838
:1001C80053B94AB9002908BF00281CBF4FF0FF31B6
:1001D8004FF0FF3000F072B9ADF1080C6DE904CEB4
:1001E80000F006F8DDF804E0DDE9022304B070470A
:1001F8002DE9F047089E04468846002B4BD18A42D9
:10020800154667D9B2FA82F24AB1C2F1200701FA5B
:1002180002F320FA07F7954047EA030894404FEAAB
:10022800154E230CB8FBFEF71FFA85FC0EFB17884A
:1002380043EA084307FB0CF1994209D9EB1807F187
:10024800FF3080F01B81994240F21881023F2B4415
:100258005B1AA4B2B3FBFEF00EFB103344EA03446E
:1002680000FB0CFCA44509D92C1900F1FF3380F0E0
:100278000781A44540F2048102382C4440EA074033
:10028800A4EB0C0400271EB1D4400023C6E90043A8
:100298003946BDE8F0878B4209D9002E00F0EB8083
:1002A8000027C6E9000138463946BDE8F087B3FAA9
:1002B80083F7002F47D18B4202D3824200F2FA80A3
:1002C800841A61EB030301209846002EE0D0C6E9AA
:1002D8000048DDE702B9FFDEB2FA82F2002A40F0F8
:1002E8008F80491B4FEA154E1FFA85F80127B1FB8D
:1002F800FEFC230C0EFB1C1143EA014308FB0CF126
:10030800994207D9EB180CF1FF3002D2994200F25A
:10031800CD808446591AA3B2B1FBFEF00EFB10142F
:1003280043EA044408FB00F8A04507D92C1900F15A
:10033800FF3302D2A04500F2B6801846A4EB0804A9
:1003480040EA0C409FE7C7F1200CBB4022FA0CFEA4
:100358004EEA030E01FA07F420FA0CF521FA0CF321
:100368004FEA1E482543B3FBF8F92C0C08FB193358
:100378001FFA8EFA44EA034309FB0AF49C4202FA84
:1003880007F200FA07F10BD91EEB030309F1FF305E
:1003980080F087809C4240F28480A9F1020973446E
:1003A8001B1BADB2B3FBF8F008FB103345EA03445E
:1003B80000FB0AFAA24508D91EEB040400F1FF333A
:1003C8006BD2A24569D90238744440EA0940A0FBBF
:1003D8000289A4EB0A044C45C2464B4654D351D07B
:1003E800002E69D0B1EB0A0564EB030404FA0CFC97
:1003F800FD40FC404CEA0505C6E90054002747E7E4
:10040800C2F1200320FA03F7954001FA02F021FA1D
:1004180003F34FEA154E3843010CB3FBFEF71FFAFE
:1004280085F80EFB173341EA034107FB08F38B42BB
:1004380004FA02F407D9691807F1FF3C2FD28B425E
:100448002DD9023F2944CB1A81B2B3FBFEF00EFB33
:10045800103341EA034100FB08F38B4207D96918BE
:1004680000F1FF3C17D28B4215D902382944C91A2A
:1004780040EA07473BE73746304609E70746E7E6DD
:100488001846FBE64145ABD2B8EB020A69EB0E020F
:1004980001381346A4E76046E9E7184695E767463A
:1004A800D1E781467CE702382C4447E7ACF1020CDF
:1004B8002B442FE7384608E73746E9E6704700BF80
:1004C80010B504460E4B18784FF47A73B3FBF0F36B
:1004D8000C4A1068B0FBF3F000F0A8F868B90F2CCC
:1004E80001D901200AE0002221464FF0FF3000F038
:1004F8005DF8034B5C60002000E0012010BD00BFE8
:10050800000000202800002008B50B4B1A6842F4B0
:1005180000721A601A6842F480621A601A6842F41B
:1005280080721A60032000F02FF80020FFF7C8FF40
:1005380004F0ACFA002008BD003C0240034A1168F0
:10054800034B1B780B441360704700BFC8000020A2
:1005580000000020014B1868704700BFC800002049
:1005680038B50446FFF7F6FF0546B4F1FF3F02D061
:10057800044B1B781C44FFF7EDFF401BA042FAD345
:1005880038BD00BF00000020074AD36823F4E063A9
:100598001B041B0C000200F4E060184340F0BF602D
:1005A80040F40030D060704700ED00E030B4174BE5
:1005B800DB68C3F30223C3F10704042C28BF042417
:1005C8001D1D062D18D9033B4FF0FF3505FA04F41D
:1005D80021EA0401994005FA03F322EA03031943C7
:1005E80000280BDB0901C9B200F1604000F5614049
:1005F80080F8001330BC70470023E5E700F00F00D7
:100608000901C9B2024B1954F4E700BF00ED00E03C
:1006180014ED00E000F01F02400901239340024A54
:1006280042F82030704700BF00E100E00138B0F127
:10063800807F0AD2064B5860064AF02182F82310C0
:100648000020986007221A6070470120704700BF99
:1006580010E000E000ED00E0042805D0054A13682A
:1006680023F0040313607047024A136843F004033D
:100678001360704710E000E0704708B5FFF7FCFF13
:1006880008BD000000230F2B00F2D780F0B482B021
:1006980039E0072200E00022B2403A430234674EB4
:1006A80046F82420664A1468EA4302EA04064F68BA
:1006B80017F4803F01D045EA0406614C266064685F
:1006C80002EA04064F6817F4003F01D045EA040621
:1006D8005B4C6660A46802EA04064F6817F4801F42
:1006E80001D045EA0406564CA660E46822404E68EC
:1006F80016F4001F01D045EA0402514CE2600133B0
:100708000F2B00F2978001229A400C6804EA020538
:10071800AA42F4D14C68022C01D0122C10D1DE0868
:10072800083650F826C003F00704A7000F24BC4081
:100738002CEA040C0C69BC4044EA0C0440F826403E
:1007480004685F000326BE40F64306EA040C4C68C2
:1007580004F00304BC4044EA0C0404604C6804F14F
:10076800FF3CBCF1010F03D9112C01D0122C10D180
:10077800846806EA040CCC68BC4044EA0C04846033
:10078800446824EA02024C68C4F300149C401443F1
:100798004460C26816408A68BA403243C2604A68F8
:1007A80012F0805FABD000220192264A546C44F4C8
:1007B80080445464526C02F480420192019A9C086D
:1007C800A61C1E4A52F8267003F0030296000F2258
:1007D800B24027EA02071C4A90423FF45CAF02F598
:1007E800806290421AD002F58062904218D002F5D9
:1007F8008062904216D002F58062904214D002F5D1
:100808008062904212D002F58062904210D002F5C8
:10081800806290423FF43DAF08223DE701223BE76A
:10082800022239E7032237E7042235E7052233E7B6
:10083800062231E702B0F0BC70477047003801402B
:10084800003C0140003802400000024012B909048F
:1008580081617047816170474369594041617047C0
:10086800F8B50668346A04F00F07C4F34343C4F3C9
:100878000A14022B2ED16CB307EB8702D300034472
:10088800596C39B305462246304602F079FABA0067
:100898003A44D3002B445A6C22445A64DA6C2244FA
:1008A800DA6406EB4713D3F810150B4A0A408AB1ED
:1008B800D3F8002522F0804242F00042C3F8002518
:1008C800BB00D919CA002A4492F8503083F00103BA
:1008D80082F85030F8BD00BF0000F81FF0B585B0B1
:1008E8009DF828609DF82C70BDF830C090F89042B3
:1008F800012C2AD00546012085F89002880000EBDB
:10090800010E4FEACE042C4484F83830A4F840C0D5
:1009180084F8391084F83F7002F07F0E84F83AE0CA
:100928004FEAD21E84F83BE00844C4002C4484F803
:100938003C60CDF808C001970096286802F039FBA2
:10094800002385F8903205B0F0BD0220FBE790F84F
:100958009032012B0BD010B50446012380F8903259
:10096800006802F0E0FC002084F8900210BD02202C
:100978007047002837D0F0B58BB00646032380F8BF
:10098800913204F02DFA306802F0A3F9344654F895
:1009980010CB6D460FCC0FC50FCC0FC594E80300E4
:1009A80085E80300371D97E80E00604602F04DF910
:1009B8000121306802F093F9344654F810CB6D46A3
:1009C8000FCC0FC50FCC0FC594E8030085E80300D2
:1009D80097E80E00604602F00DFA012386F891327E
:1009E80000200BB0F0BD01207047F8B59DF81870D5
:1009F800BDF820609DF824C08D000D44EC0004442F
:100A080084F83B2084F83F306FB901EB8105EC0096
:100A18000444032584F84250032B00F2B380DFE836
:100A280003F00AAA3E7B01EB8105EC000444022591
:100A380084F84250F0E7012F40F0A480002A40F0EB
:100A4800A18036B901EB8102D3000344012283F867
:100A5800512001EB8102D300034493F85130B3B91C
:100A680001EB8102D3000344002283F8422001EB0A
:100A78008102D300034493F85C30022B00F082809B
:100A880001EB8102D300034483F83DC07AE001EB17
:100A98008102D3000344022283F84220E7E722BB05
:100AA80001EB8102D300034493F85130ABB901EB59
:100AB8008102D3000344002283F8422001EB810223
:100AC800D300034493F85C30022B5BD001EB810226
:100AD800D300034483F83DC054E001EB8102D30006
:100AE8000344022283F84220E8E701EB8102D300A5
:100AF800034493F850303BB901EB8102D30003441F
:100B0800002283F842203DE001EB8102D300034438
:100B1800022283F8422035E0B2B901EB8102D3000A
:100B2800034493F851303BB901EB8102D3000344ED
:100B3800002283F8422025E001EB8102D300034420
:100B4800022283F842201DE001EB8102D300034416
:100B580093F850303BB901EB8102D30003440022E3
:100B680083F842200EE001EB8102D3000344022205
:100B780083F8422006E001EB8102D30003440022FF
:100B880083F842208A005418E3000344079C5C64FD
:100B98009E64002483F85C40DC6483F8391083F891
:100BA8005D401144CB0003F13801027C0144006828
:100BB80002F070FAF8BD30B583B005460468D4F881
:100BC80040340193D4F840340093009B23F02E0363
:100BD8000093019B13F0020F07D0019B13F0010F44
:100BE80025D1009B43F002030093019B13F0080FEB
:100BF80010D0009B43F008030093019B13F0040FEF
:100C080031D0AB69022B19D0EB68032B26D02846CC
:100C180004F028F9019B13F0200F03D0009B43F048
:100C280020030093009BC4F8403403B030BDA3698F
:100C380023F00053A36104F015F9D2E7019B03F4F4
:100C4800C023B3F5802F04D00121286802F048F9A9
:100C5800DDE70221286802F043F9D8E74EF6602262
:100C6800C4F80424D3E7D4F8403423F02E03C4F89E
:100C780040342A68936943F000539361CAE7F8B592
:100C880006460D46076807EB411707F5A064A368F9
:100C980013F0040F41D00423A360E36843F0020378
:100CA800E360A36813F4007F6DD1A36813F0010F0C
:100CB80000F08A80336963B1AB005919CA00324425
:100CC800916C2269C2F31202891A2B44DA00324469
:100CD800D164AA002A44D3003344012283F85D205A
:100CE80000219965A26093F83F30002B57D0022B62
:100CF80055D0032B5DD1D7F8003543F00053C7F822
:100D0800003505EB8502D3003344012283F85C20CB
:100D18002946304604F0B2F84BE0A36813F0200FE0
:100D280002D02023A360BCE7A36813F0080F17D1F3
:100D3800A36813F4806FB4D0E36843F00203E36060
:100D4800006802F0F0FA1023A36005EB8502D300D7
:100D58003344082283F85D204FF48063A360A0E742
:100D6800E36843F00203E36001EB8102D30003442C
:100D7800052283F85D201023A3600823A360006880
:100D880002F0D1FA8DE7E36843F00203E3602946F5
:100D9800306802F0C8FA4FF40073A36013E0E36808
:100DA80043F00203E3602946306802F0BCFA1023DE
:100DB800A360AB005919CA00324492F8503083F04E
:100DC800010382F85030F8BDA36813F0020F50D029
:100DD800E36823F00203E36005EB8502D3003344A4
:100DE80093F85D30012B20D0052B32D0062B01D093
:100DF800082B21D1AA002A44D30033449A6D511CF0
:100E08009965032A2DD9AA002A44D3003344002225
:100E18009A65042283F85C20D7F8003523F08043D4
:100E280043F00043C7F8003506E005EB8502D30020
:100E38003344012283F85C200223A36005EB85027A
:100E4800D300334493F85C202946304604F016F862
:100E5800B9E705EB8502D3003344052283F85C200B
:100E6800EAE705EB8502D3003344022283F85C20CD
:100E7800D2E7A36813F0800F26D1A36813F0100FF0
:100E8800A1D005EB8502D300334493F83F30032B00
:100E980032D0AB005919CA003244032182F85D10E0
:100EA8001022A2601D4405FA01F31E4496F83F3053
:100EB8000BB1022B87D1D7F8003523F0804343F0DC
:100EC8000043C7F800357EE7E36843F00203E360B8
:100ED800AB005919CA003244916D013191652B4418
:100EE800DA003244062382F85D302946306802F081
:100EF8001AFA8023A36066E7E36843F00203E3601D
:100F08002946306802F00FFAC3E7F8B5046804EB25
:100F1800411404F5A064A36813F0040F24D10E460D
:100F28000546A36813F0200F25D02023A36001EB0A
:100F38008102D300034493F83D30012B1AD18F006E
:100F48007A18D3000344042283F85D20E36843F051
:100F58000203E360006802F0E6F9B919C800284402
:100F6800022380F85C3005E00423A360E36843F0C3
:100F78000203E360F8BDA36813F0400F4CD1A368E7
:100F880013F4007F5FD1A36813F0010F66D1A36843
:100F980013F0080F77D1A36813F0100F40F0848086
:100FA800A36813F0800F40F09580A36813F4806F56
:100FB80040F0A180A36813F0020FDBD0E36823F0B0
:100FC8000203E36001EB8102D300034493F85D3030
:100FD800012B00F0A480032B00F0C480042B00F048
:100FE800C980052B00F0D180062B02D0082B40F0D9
:100FF800A180B2003244D3002B449A6D511C9965EC
:10100800032A40F2CA80282303FB065300229A656C
:10101800042283F85C208DE08B005918CA00024432
:10102800042182F85D103344DA00024400239365FA
:10103800E36843F00203E3603146006802F073F9A5
:101048004023A36096E7E36843F00203E360006887
:1010580002F069F94FF40073A3608BE78F007A18E8
:10106800D300034400229A65E36843F00203E36077
:10107800006802F058F90123A360B919C800284490
:1010880080F85D3076E70823A360E36843F0020345
:10109800E360006802F047F906EB8601C8002844BF
:1010A800052380F85D3065E78F007A18D300034484
:1010B80000229A65E36843F00203E360006802F0E7
:1010C80032F9B919C8002844032380F85D30102389
:1010D800A3604FE7E36843F00203E360006802F0AF
:1010E80022F906EB8601CB002B44062283F85D200B
:1010F8008023A3603EE7E36843F00203E3600068EF
:1011080002F011F91023A3604FF48063A36006EB8B
:101118008601CB002B44082283F85D202AE78A0049
:101128000A44D3000344012283F85C2093F83F303B
:10113800022B0CD00223A36006EB8602D3002B44BB
:1011480093F85C203146284603F098FE12E78A009F
:101158000A44D300034493F8512082F0010283F833
:101168005120E7E701EB8102D3000344022283F810
:101178005C20DFE78A000A44D3000344022283F894
:101188005C20002283F83D20D4E701EB8102D300E4
:101198000344052283F85C20CCE7282303FB06538D
:1011A800022283F85C20C5E7F8B50446056828469E
:1011B80001F0FEFD012800D0F8BD206801F0F4FD23
:1011C8000028F9D0206801F0EFFD10F4001F03D0CB
:1011D80023684FF400125A61206801F0E5FD10F40D
:1011E800801F03D023684FF480125A61206801F0F1
:1011F800DBFD10F0806F03D023684FF080625A61E6
:10120800206801F0D1FD10F0020F02D023680222FD
:101218005A61206801F0C8FD10F0005F25D12068F0
:1012280001F0C2FD10F0807F31D1206801F0BCFDD3
:1012380010F0080F2FD1206801F0B6FD10F0007FE4
:1012480030D1206801F0B0FD10F0100FB4D0226842
:10125800936923F0100393612046FFF701FB22688E
:10126800936943F010039361A6E7D5F8403423F05F
:101278002E03C5F84034204603F0FAFD012120680A
:1012880001F02EFE23684FF000525A61C7E720464E
:10129800FFF791FCC9E7204603F0DEFD236808222A
:1012A8005A61C8E7206802F02FF80746002604E0D4
:1012B800F1B22046FFF729FE0136A368B3420FD9E1
:1012C8000123B3403B42F7D005EB4613D3F8003572
:1012D80013F4004FECD0F1B22046FFF7D0FCEBE757
:1012E80023684FF000725A61ABE738B590F8903236
:1012F800012B0ED00446012580F89052006801F0B9
:10130800E2FC2946206801F025FE002084F89002BE
:1013180038BD0220FCE790F89032012B0BD010B5B5
:101328000446012380F89032006802F017F9002083
:1013380084F8900210BD0220704708B5006801F0DB
:10134800EFFD08BD01EB8101CB00184490F85C006B
:10135800704701EB8101CB001844C06C704708B599
:10136800006801F021FE08BD08B5006801F013FE11
:1013780008BD0000002800F0828010B5044690F8EF
:101388003D30002B41D0242384F83D302268136877
:1013980023F00103136000F07DFE3A4BA3FB00230A
:1013A8009B0C226853606168374A914232D80133F6
:1013B800226813626368344A934235D85B00B0FBF5
:1013C800F3F0C0F30B03032B00D804202368D86183
:1013D800E369216A22680B4313602369E168226884
:1013E8000B4393606369A16922680B43D360226849
:1013F800136843F00103136000202064202384F85D
:101408003D30206384F83E0010BD80F83C3003F086
:1014180087FBB8E74FF4967202FB03F31B4AA2FB63
:1014280003239B090133C3E7A16889B903EB43028E
:10143800B0FBF2F2C2F30B02B2FA82F25209E2B93D
:1014480091B903EB4303B0FBF3F040F40040BDE770
:1014580003EB830202EB8202B0FBF2F2C2F30B024F
:10146800B2FA82F25209EAE703EB830303EB830340
:10147800B0FBF3F040F44040A8E70120A6E70120C4
:10148800704700BF83DE1B43A0860100D34D621066
:10149800704708B5436A9A1C426202681B88D36089
:1014A800438D013B9BB24385438D9BB203B108BD7D
:1014B8000268536823F0A0031B041B0C536001232C
:1014C80080F84130FFF7E4FFF1E7704708B503689B
:1014D800DA68C36A991CC1621A80438E013B9BB2C9
:1014E8004386438E9BB203B108BD0268536823F05C
:1014F80060031B041B0C5360012380F84130FFF785
:10150800E4FFF1E770470000002800F0BB8070B5E9
:101518000446022580F841505B4B436303F02AFBE5
:101528002268D36923F47B6323F00F03D361236814
:101538001D622368DD696369022B5BD0E368002BB9
:101548003ED02026A368202B00D87600012000F08A
:101558005BFE2369B3F5007F34D0B0FBF6F000EBF7
:10156800800043006269B3FBF2F30533474AA2FBEC
:101578000323DB0803F001029B1AC3F34F03110294
:101588009A1EFD2A38D822690A43216813430B6240
:101598006268A168E068238B03439BB20B439BB24C
:1015A80013439BB243F400631D432368DD61236A40
:1015B800012B2AD000206064012384F8413070BDDB
:1015C8001026BFE7E36853B1B600B0FBF6F000EBB6
:1015D800800043006269B3FBF2F30533C6E7F60007
:1015E800B0FBF6F000EB800043006269B3FBF2F356
:1015F8000533BBE70021C3E7636C43F01003636462
:101608002046FFF77FFF0120D9E7214B636322685B
:10161800204B9A421ED04FF04022D36923F47B63BB
:1016280023F00F03D36122681A4B9A4214D04FF06B
:10163800402302221A622268164B9A420FD04FF0BA
:101648004022D0696168B1F5007F0AD0C1B94FF472
:10165800807608E0104AE0E7A3F58063E9E70E4AE0
:10166800EFE74FF48076A168E568238B2B439BB2A4
:101678000B439BB2334343F400630343D36199E7BD
:101688000026F0E701207047A5160008CDCCCCCC89
:10169800C1180008003800400034004010B584B07C
:1016A800044602689368039390F84130DBB2042B38
:1016B80006D094F84130DBB2032B2ED004B010BD15
:1016C800039B13F0010F03D0536813F0400F21D18F
:1016D800039B13F0400FECD023685A6812F0200FD8
:1016E800E7D05A6822F060021204120C5A600023F4
:1016F80001932368DA6801929B680193019B012397
:1017080084F84130636C43F0020363642046FFF7BA
:10171800F9FECEE7FFF7DAFEDAE7039B13F0020FD4
:1017280004D023685B6813F0800F1FD1039B13F06C
:10173800080FC3D023685A6812F0200FBED05A6829
:1017480022F0A0021204120C5A60002302932368AC
:101758009B680293029B012384F84130636C43F039
:10176800040363642046FFF7CDFEA7E72046FFF792
:1017780090FEDBE77047000008B5E9B9436A9A1C98
:10178800426202681B88D360438D013B9BB243854C
:10179800438D9BB24BB90268536823F0A0031B0426
:1017A8001B0C5360438E9BB203B108BD012380F824
:1017B8004130FFF7DFFFF8E7436A9A1C42621A8854
:1017C8000168134B99421ED04FF04023DA60438DD5
:1017D800013B9BB24385438D9BB2002BE5D1026848
:1017E8000B4B9A4212D04FF04022536823F0A003CB
:1017F8005360438E9BB2002BD7D1012380F8413030
:10180800FFF7B8FFD1E7A3F58063DFE7014AECE70C
:10181800003800400034004008B5E9B90368DA68C8
:10182800C36A991CC1621A80438E013B9BB24386EE
:10183800438E9BB24BB90268536823F060031B04C4
:101848001B0C5360438D9BB203B108BD012380F884
:101858004130FFF78FFFF8E70268154B9A4222D014
:101868004FF04023DA68C36A991CC1621A80438E1C
:10187800013B9BB24386438E9BB2002BE5D10268A5
:101888000B4B9A4212D04FF04022536823F060036A
:101898005360438D9BB2002BD7D1012380F8413090
:1018A800FFF768FFD1E7A3F58063DBE7014AECE7C0
:1018B800003800400034004010B584B00446036886
:1018C8009A6803927C4A93425DD04FF040218A681F
:1018D8000292DA6902F44072B2F5007F04D0DA6944
:1018E80012F4407F40F08180039A12F0020F03D077
:1018F8005B6813F0800F48D1029B13F0010F09D0E9
:1019080022686D4B9A4245D04FF040235B6813F034
:10191800400F42D1029B13F0400F09D02268664B5A
:101928009A423FD04FF040235A6812F0200F3CD122
:10193800039B13F0080F24D023685A6812F0200F75
:101948001FD05A6822F0A0021204120C5A602268B2
:10195800594B9A4247D04FF04022536823F0600316
:1019680053600023019323689B680193019B012323
:1019780084F84130636C43F0040363642046FFF746
:10198800C1FD04B010BD4D49A1E700212046FFF775
:10199800F3FEB1E7A3F58063B8E701212046FFF71E
:1019A8003BFFB7E7A3F58063BEE75A6822F0600201
:1019B8005A602268536823F0A0031B041B0C536071
:1019C800002300932368DA6800929B680093009BC9
:1019D800012384F84130636C43F0020363642046BA
:1019E800FFF790FDA4E7354AB7E7029B13F0020F13
:1019F80003D04B6813F0800F4FD1039B13F0010FF6
:101A080004D023685B6813F0400F4BD1039B13F09D
:101A1800400F1ED023685A6812F0200F19D05A6858
:101A280022F060021204120C5A602268224B9A4279
:101A38003DD04FF04022536823F0A00353600123A8
:101A480084F84130636C43F0020363642046FFF777
:101A580059FD029B13F0080F93D02268164B9A4247
:101A680027D04FF040235A6812F0200F89D05A68C7
:101A780022F0A0025A602268536823F060031B0416
:101A88001B0C5360012384F84130636C43F004035A
:101A980063642046FFF736FD73E701212046FFF710
:101AA8006BFEAAE700212046FFF7B6FEAEE7034A21
:101AB800C1E7A3F58063D6E7003800400034004052
:101AC800002800F0BB8170B582B00446036813F0AB
:101AD800010F3BD0A74B9B6803F00C03042B2CD0C1
:101AE800A44B9B6803F00C03082B21D06368B3F563
:101AF800803F4FD0B3F5A02F52D09E4B1A6822F4E6
:101B080080321A601A6822F480221A606368002BF7
:101B180050D0FEF71FFD0546964B1B6813F4003F97
:101B280014D1FEF717FD401B6428F5D903208AE17C
:101B3800904B5B6813F4800FD8D08E4B1B6813F45E
:101B4800003F03D06368002B00F07A81236813F00C
:101B5800020F55D0874B9B6813F00C0F3ED0854B76
:101B68009B6803F00C03082B33D0E368002B68D084
:101B7800814B01221A60FEF7EDFC05467D4B1B6880
:101B880013F0020F54D1FEF7E5FC401B0228F5D9EB
:101B9800032058E1774A136843F480331360B5E7AC
:101BA800744B1A6842F480221A601A6842F4803230
:101BB8001A60ABE7FEF7CEFC05466E4B1B6813F4C4
:101BC800003FC3D0FEF7C6FC401B6428F5D90320AC
:101BD80039E1684B5B6813F4800FC6D1654B1B680D
:101BE80013F0020F04D0E368012B01D001202AE191
:101BF800604A136823F0F803216943EAC1031360BC
:101C0800236813F0080F40D0636963B35B4B01226C
:101C18001A60FEF79FFC0546564B5B6F13F0020FE8
:101C280033D1FEF797FC401B0228F5D903200AE1BF
:101C3800504A136823F0F803216943EAC10313608B
:101C4800DEE74D4B00221A60FEF784FC0546494B3F
:101C58001B6813F0020FD3D0FEF77CFC401B022850
:101C6800F5D90320EFE0454B00221A60FEF772FC1D
:101C78000546404B5B6F13F0020F06D0FEF76AFC77
:101C8800401B0228F5D90320DDE0236813F0040F78
:101C980079D0384B1B6C13F0805F33D1002301934C
:101CA800344B1A6C42F080521A641B6C03F0805358
:101CB8000193019B0125324B1B6813F4807F23D0CD
:101CC800A368012B34D0052B38D02A4B1A6F22F089
:101CD80001021A671A6F22F004021A67A368002B20
:101CE80036D0FEF737FC0646224B1B6F13F0020F67
:101CF80048D1FEF72FFC801B41F288339842F3D974
:101D08000320A0E00025D6E71D4A136843F480733A
:101D18001360FEF71FFC0646194B1B6813F4807FFF
:101D2800CED1FEF717FC801B0228F5D903208AE0E4
:101D3800104A136F43F001031367CFE70D4B1A6F77
:101D480042F004021A671A6F42F001021A67C5E7E7
:101D5800FEF700FC0646074B1B6F13F0020F11D06D
:101D6800FEF7F8FB801B41F288339842F3D9032031
:101D780069E000BF0038024000004742800E474239
:101D880000700040E5B9A369002B5BD0304A926827
:101D980002F00C02082A58D0022B17D02D4B002233
:101DA8001A60FEF7D7FB0446294B1B6813F0007F27
:101DB80042D0FEF7CFFB001B0228F5D9032042E0F2
:101DC800234A136C23F080531364DCE7214B002271
:101DD8001A60FEF7BFFB05461D4B1B6813F0007F1A
:101DE80006D0FEF7B7FB401B0228F5D903202AE0EE
:101DF800E369226A1343626A43EA8213A26A5208B9
:101E0800013A43EA0243E26A43EA0263104A536032
:101E1800104B01221A60FEF79DFB04460C4B1B6811
:101E280013F0007F06D1FEF795FB001B0228F5D9B9
:101E3800032008E0002006E0002004E001207047AD
:101E4800012000E0002002B070BD0120FBE700BFC8
:101E58000038024060004742324B9B6803F00C0395
:101E6800042B5CD0082B01D02F4870472DE9F04B8C
:101E78002C4B5A6802F03F025B6813F4800F2BD09A
:101E8800284B5B68C3F388131E4600275C010025B6
:101E9800E41A65EB0705A90141EA9461A001001B5A
:101EA80061EB0501CB0043EA5073C400A01943EB72
:101EB80007014B0243EAD053440220461946002347
:101EC800FEF77EF9174B5B68C3F3014301335B00F0
:101ED800B0FBF3F0BDE8F08B124B5B68C3F38813DB
:101EE8001E4600275C010025E41A65EB0705A901D9
:101EF80041EA9461A001001B61EB0501CB0043EAB4
:101F08005073C400A01943EB07018B0243EA9053B6
:101F18008402204619460023FEF752F9D2E7034807
:101F2800704700BF003802400024F40000127A0015
:101F3800002800F09D8070B504464F4B1B6803F0E5
:101F48000F038B4209D2CBB24B4A1370136803F0CC
:101F58000F038B4201D0012070BD236813F0020FDC
:101F680017D013F0040F04D0444A936843F4E053A5
:101F78009360236813F0080F04D0404A936843F431
:101F8800604393603D4A936823F0F003A0680343DD
:101F980093600D46236813F0010F32D06368012B5C
:101FA80021D09A1E012A25D9344A126812F0020F4C
:101FB80060D032498A6822F0030213438B60FEF72F
:101FC800C9FA06462D4B9B6803F00C036268B3EB15
:101FD800820F16D0FEF7BEFA801B41F28833984272
:101FE800F0D90320B8E7254A126812F4003FE0D17F
:101FF8000120B1E7214A126812F0007FD9D10120EF
:10200800AAE71D4B1B6803F00F03AB4209D9EAB2DC
:10201800194B1A701B6803F00F03AB4201D0012063
:102028009AE7236813F0040F06D0144A936823F440
:10203800E053E1680B439360236813F0080F07D05F
:102048000E4A936823F46043216943EAC10393600D
:10205800FFF702FF094B9B68C3F30313084AD35CDD
:10206800D840084B18600020FEF72AFA002073E7D2
:102078000120704701206FE7003C02400038024011
:10208800C452000828000020014B1868704700BFA0
:102098002800002008B5FFF7F7FF044B9B68C3F33F
:1020A8008223034AD35CD84008BD00BF00380240F1
:1020B800D452000830B583B00446036813F0050F06
:1020C80006D1236813F0020F2ED1002003B030BDD3
:1020D800494B00221A60FEF73DFA0546474B1B683C
:1020E80013F0006F06D0FEF735FA401B0228F5D929
:1020F8000320EBE76268A3681B0743EA82133F4AA1
:10210800C2F884303C4B01221A60FEF723FA0546D8
:102118003A4B1B6813F0006FD3D1FEF71BFA401B34
:102128000228F5D90320D1E700230193334B1A6C19
:1021380042F080521A641B6C03F080530193019B98
:102148002F4A136843F480731360FEF703FA0546B9
:102158002B4B1B6813F4807F06D1FEF7FBF9401B5D
:102168000228F5D90320B1E7244B1B6F13F4407301
:1021780012D0E26802F440729A420DD01F4B1A6FD7
:1021880022F440721F4901200860002008601A6785
:102198001B6F13F0010F13D1E36803F44072B2F51B
:1021A800407F1ED0154A936823F4F81393601349AF
:1021B8000B6FE268C2F30B0213430B67002085E73D
:1021C800FEF7C8F905460D4B1B6F13F0020FE3D15C
:1021D800FEF7C0F9401B41F288339842F3D9032037
:1021E80074E706498A6822F4F81223F0704323F44E
:1021F800407313438B60DAE76800474200380240B7
:1022080000700040400E474201282AD1174B9B68B6
:1022180013F4000303D0012B25D115487047134B45
:102228005B6813F4800F14D0104B5B6803F03F0316
:102238001048B0FBF3F00D4AD2F88430C3F388138A
:1022480000FB03F0D2F88430C3F30273B0FBF3F061
:102258007047064B5B6803F03F030748B0FBF3F099
:10226800E9E7002070470020704700BF00380240AF
:102278000080BB0000127A000024F40000283BD044
:1022880010B504460023836290F85130002B2ED0FD
:10229800022384F851302268136823F04003136046
:1022A8006368A2681343E2681343226913436269AF
:1022B8001343A26902F400721343E2691343226ACA
:1022C8001343A16A22680B431360638B03F0040372
:1022D800616A22680B4353602268D36923F4006360
:1022E800D36100206065012384F8513010BD80F867
:1022F800503002F073FCCBE70120704770B4036ADA
:1023080023F001030362036A4268846924F07304BA
:102318000D6845EA040623F002048B6823430C4D3C
:10232800A84202D00B4CA0420BD123F00803CD6881
:102338002B4323F0040322F440724D6915438A6944
:102348002A43426086614A684263036270BC7047F0
:10235800000001400004014030B4036A23F4807394
:102368000362036A4268C46924F073040D682C434D
:1023780023F400738D6843EA05230E4DA84203D069
:1023880005F58065A8420ED123F40063CD6843EAC1
:10239800052323F4806322F440524D6942EA051272
:1023A8008D6942EA05124260C4614A68C2630362E9
:1023B80030BC70470000014030B4036A23F48053F6
:1023C8000362036A4468C26922F4E6420D6842EA7D
:1023D800052223F400538D6843EA0533094DA842CA
:1023E80003D005F58065A84204D124F480444D69E2
:1023F80044EA85144460C2614A680264036230BCDE
:10240800704700BF0000014010B4036A046A24F05A
:1024180001040462846924F0F00444EA021223F0FF
:102428000A030B43826103625DF8044B704730B4C2
:10243800046A24F0100404628469056A24F4407470
:1024480044EA022222F470421B039BB21A4325F08D
:10245800A005090101F0A00129438261016230BC95
:10246800704710B4036A23F0100303628469036A97
:1024780024F4704444EA023223F0A00343EA01132F
:10248800826103625DF8044B704730B4046A24F437
:1024980080740462C469056A24F00304224322F0AC
:1024A800F0021B01DBB21A4325F42065090201F48E
:1024B80020612943C261016230BC704730B4046AAC
:1024C80024F480540462C469056A24F4407444EA1C
:1024D800022222F470421B039BB21A4325F42045C2
:1024E800090301F420412943C261016230BC7047ED
:1024F800836823F0700341F0070119438160704736
:1025080010B4846824F47F4442EA03230B43234332
:1025180083605DF8044B70477047704790F8383017
:10252800012B7DD010B50446012380F838300223F2
:1025380080F839300268936823F47F4323F07703E7
:1025480093600B68402B57D010D9702B3ED01FD802
:10255800502B47D0602B32D1CA6849680068FFF712
:1025680080FF60212068FFF7C3FF28E0102B4DD0C3
:1025780008D9202B4FD0302B21D130210068FFF70C
:10258800B7FF1CE0DBB900210068FFF7B1FF16E0D8
:10259800B3F5805F0ED0B3F5005F10D1CB684A6801
:1025A80089680068FFF7ACFF2268936843F48043AA
:1025B800936004E00268936823F0070393600123A3
:1025C80084F83930002084F8380010BDCB684A6898
:1025D80089680068FFF794FF2268936843F07703DF
:1025E8009360ECE7CA6849680068FFF70DFF50215F
:1025F8002068FFF77DFFE2E7CA6849680068FFF7CF
:1026080003FF40212068FFF773FFD8E71021006817
:10261800FFF76EFFD3E720210068FFF769FFCEE7D9
:102628000220704770477047704710B5044603682A
:102638001A6912F0020F11D0DA6812F0020F0DD0E9
:102648006FF002021A610123037603689B6913F095
:10265800030F70D002F01AF80023237623681A6952
:1026680012F0040F12D0DA6812F0040F0ED06FF0D7
:1026780004021A610223237623689B6913F4407FBE
:102688005FD0204602F002F80023237623681A69F7
:1026980012F0080F12D0DA6812F0080F0ED06FF09F
:1026A80008021A61042323762368DB6913F0030FF9
:1026B8004ED0204601F0EAFF0023237623681A69EA
:1026C80012F0100F12D0DA6812F0100F0ED06FF05F
:1026D80010021A61082323762368DB6913F4407F0C
:1026E8003DD0204601F0D2FF0023237623681A69E3
:1026F80012F0010F03D0DA6812F0010F36D1236807
:102708001A6912F0800F03D0DA6812F0800F34D102
:1027180023681A6912F0400F03D0DA6812F0400FEC
:1027280032D123681A6912F0200F03D0DA6812F048
:10273800200F30D110BDFFF775FF2046FFF773FF5C
:102748008AE72046FFF76EFF2046FFF76CFF9BE7FE
:102758002046FFF767FF2046FFF765FFACE72046F6
:10276800FFF760FF2046FFF75EFFBDE76FF001024D
:102778001A61204601F0BAFFC1E76FF080021A61C2
:10278800204600F061FAC3E76FF040021A61204664
:10279800FFF74AFFC5E76FF020021A61204600F0F4
:1027A80052FAC7E703682E4A904212D0B0F1804F20
:1027B8000FD0A2F57C4290420BD002F58062904285
:1027C80007D002F58062904203D002F57842904229
:1027D80003D123F070034A681343214A90422AD058
:1027E800B0F1804F27D0A2F57C42904223D002F569
:1027F800806290421FD002F5806290421BD002F5A1
:102808007842904217D002F57052904213D002F5E8
:10281800806290420FD002F5806290420BD0A2F500
:102828009832904207D002F58062904203D002F5B8
:102838008062904203D123F44073CA681343036053
:102848008B68C3620B688362054B984203D003F51B
:102858008063984201D10B69036301234361704788
:1028680000000140A8B110B5044690F839305BB1BA
:10287800022384F83930211D2068FFF793FF0123D4
:1028880084F83930002010BD80F8383002F0CEF9D5
:10289800EEE701207047A8B110B5044690F839302A
:1028A8005BB1022384F83930211D2068FFF77AFFD5
:1028B800012384F83930002010BD80F83830FFF744
:1028C8002BFEEEE701207047A8B110B5044690F83A
:1028D80039305BB1022384F83930211D2068FFF7B5
:1028E80061FF012384F83930002010BD80F83830AA
:1028F800FFF713FEEEE701207047000070B4046A8A
:1029080024F0010404628469056A1A4EB0421FD09B
:10291800B0F1804F1CD0A6F57C46B04218D006F521
:102928008066B04214D006F58066B04210D006F535
:102938007846B0420CD006F57056B04208D0A6F5DD
:102948009436B04204D024F0030242F0010202E0BF
:1029580024F00304224322F0F0021B01DBB21343EC
:1029680025F00A0201F00A0111438361016270BC7B
:10297800704700BF0000014038B590F83830012B8F
:1029880058D00D460446012380F83830022380F8D9
:102998003930DAB1042A2AD0082A3AD0CB684A68F2
:1029A80009680068FFF78AFD2268D36923F4406349
:1029B800D3612268D369A96843EA0123D36101235B
:1029C80084F83930002084F8380038BDCB684A686C
:1029D80009680068FFF792FF2268936923F00C03E7
:1029E800936122689369A9680B439361E7E7CB6811
:1029F8004A6809680068FFF71AFD2268936923F49A
:102A08004063936122689369A96843EA012393614B
:102A1800D5E7CB684A6809680068FFF736FD226881
:102A2800D36923F00C03D3612268D369A9680B43E7
:102A3800D361C4E70220C8E730B4036A23F0100367
:102A48000362036A4468826922F4E6420D6842EA36
:102A5800052223F020038D6843EA05130E4DA84292
:102A680003D005F58065A8420ED123F08003CD6818
:102A780043EA051323F0400324F440644D6944EA13
:102A880085048D6944EA8504446082614A688263EA
:102A9800036230BC704700BF0000014038B590F8B1
:102AA8003830012B66D00D460446012380F83830B3
:102AB800022380F839300C2A1AD8DFE802F0071907
:102AC8001919201919193419191947000068FFF73D
:102AD80015FC2268936943F008039361226893699F
:102AE80023F0040393612268936929690B43936176
:102AF800012384F83930002084F8380038BD006894
:102B0800FFF79AFF2268936943F400639361226890
:102B1800936923F48063936122689369296943EA7E
:102B280001239361E4E70068FFF716FC2268D36984
:102B380043F00803D3612268D36923F00403D36107
:102B48002268D36929690B43D361D1E70068FFF78D
:102B580033FC2268D36943F40063D3612268D369E4
:102B680023F48063D3612268D369296943EA012386
:102B7800D361BDE70220C1E710B4012303FA01F4D1
:102B8800036A23EA04030362036A8A401343036265
:102B98005DF8044B704710B504460C290DD8DFE8E2
:102BA80001F0070C0C0C170C0C0C1D0C0C0C230062
:102BB8000268D36843F00203D36001222068FFF75C
:102BC800DBFF2268136843F001031360002010BD87
:102BD8000268D36843F00403D360EEE70268D36861
:102BE80043F00803D360E8E70268D36843F01003B2
:102BF800D360E2E790F83830012B22D030B40122BC
:102C080080F83820022380F839300468636823F09C
:102C180070036360046863680D682B43636004682D
:102C2800A36823F08003A3600468A36849680B4382
:102C3800A36080F83920002380F83830184630BC6B
:102C48007047022070477047704784B010B504463B
:102C580003A880E80E00089B012B20D1A36B23F466
:102C68008033A363E36823F4840323F04003E36021
:102C7800E36823F44013E3600F9B012B0AD020463E
:102C880000F09AF8069B012B14D00020BDE81040F4
:102C980004B07047E36843F48013E360EFE7E36848
:102CA80043F04003E360204600F086F84FF4803399
:102CB800A363E7E7A36843F00603A360A36843F0B0
:102CC8002003A360E1E7836843F0010383600020E9
:102CD8007047836823F0010383600020704708B5BC
:102CE800C36823F0C043C360012909D019B9C36878
:102CF80043F08043C3603220FDF732FC002008BD5A
:102D0800C36843F00053C360F5E70000890141F050
:102D18002001016100230133054A934205D8026965
:102D280012F0200FF7D1002070470320704700BF32
:102D3800400D03001023036100230133054A934229
:102D480005D8026912F0100FF7D100207047032050
:102D5800704700BF400D030070B49DF80C4064B983
:102D680003339D0807E000EB023303F5805351F865
:102D7800046B1E600134AC42F5D3002070BC704770
:102D880003329208002393420CD210B400F5805409
:102D9800246841F8044B01339342F7D308465DF8A1
:102DA800044B704708467047426980691040704775
:102DB800406900F001007047002301330C4A934238
:102DC80011D80269002AF8DA036943F001030361A4
:102DD80000230133064A934207D8026912F0010F13
:102DE800F7D100207047032070470320704700BFC9
:102DF800400D030084B038B5044605A880E80E00ED
:102E080025460023C4F8003EA36B23F48023A36364
:102E1800A36B23F40023A363A36B43F40013A363FE
:102E2800079B032B0ED0D4F8003423F00403C4F816
:102E3800003410212046FFF769FF2046FFF77AFF8C
:102E4800002213E0B4F1A04FEDD0D4F8003443F0E1
:102E58000403C4F80034ECE705EB42134FF0FF31EC
:102E6800C3F808150021C3F80C150132069B9342DC
:102E7800F2D80121204600F06DF8C820FDF770FB5C
:102E88000023A3614FF0FF336361B4F1A04F17D063
:102E98004FF40073636203F18073A3620D4BC4F8AF
:102EA8000031089B1BB9A36943F01003A361A26911
:102EB800094B1343A3610020BDE8384004B07047B4
:102EC8008023636203F5C003A362044BC4F8003196
:102ED800E7E700BF0003E000080020A3E00040008F
:102EE80010B400F58064D0F8003423F00303C0F870
:102EF8000034D0F8003401F003021343C0F8003462
:102F0800012905D0022907D000205DF8044B70473D
:102F18004BF680336360F7E741F270736360F3E761
:102F280010B582B00446D0F840340193019B23F0D9
:102F38002E030193019B43F48073C0F840340A20A8
:102F4800FDF70EFB019B23F48073C4F84034002086
:102F580002B010BD82B0D0F840340193019B23F039
:102F68002E030193019B13F4805F01D101290CD03A
:102F7800019B13F4805F05D021B9019B23F4805392
:102F8800C0F84034002002B07047019B43F48053DE
:102F9800C0F84034ECE782B0D0F84034019301988F
:102FA800C0F3414002B0704700F58060806880B28D
:102FB8007047F0B49DF8144000EB411505F5A06684
:102FC8004FF0FF37B760032C1CD8DFE804F0024D40
:102FD800021540F29D47F76012F0800F07D1B0F15B
:102FE800A04F0FD0F76847F06007F7600AE0F7686E
:102FF80047F48077F76005E040F29D67F76012F0CC
:10300800800F2CD1D0F81864012707FA01F1314359
:10301800C0F81814816941F0007181619B0503F0C3
:10302800FE53D10201F4F0410B4352B202F40042C4
:1030380013439DF81020022A21D000221343A20432
:1030480002F440221343BDF81820C2F30A021343C6
:10305800C5F80035032C15D00020F0BC7047F76880
:1030680047F48077F760CDE740F22527F76012F044
:10307800800FC7D0F76847F4C077F760C2E74FF40E
:103088000032DBE7D5F8003543F00053C5F80035CA
:10309800E2E7000080B58AB002AFF860B960134675
:1030A800FB7100237B7700237B830023FB834FF492
:1030B80080733B8300237B61FB68B3F1A04F2AD068
:1030C800BB681B79002B26D1FB79002B0BD1BB6881
:1030D8005B79012B07D1BB685B781946F86800F06B
:1030E80003FA002309E1FB79012B14D1BB685B7853
:1030F8005A01FB68134403F5A063DB68BA68527889
:103108005101FA680A4402F5A06223F06003D36013
:10311800BB6800225A71BB681B69002B19D0BB68B9
:103128001B69BA6812891344013BBA681289B3FB58
:10313800F2F3FB83FA8B3B8B9A420CD93B8BFB83D4
:10314800FB8BBA68128902FB03F31A46BB681A6143
:1031580001E00123FB83BB68DB78002B07D0FB8BE6
:10316800BA68128902FB03F31A46BB681A61BB6886
:103178001B69C3F31202FB8BDB041946614B0B403E
:103188001A43BB689B7A5B0703F0C043B968497868
:103198004801F968014401F5A06113430B61FB790B
:1031A800002B0AD0BB68D968BB685B785A01FB68FA
:1031B800134403F5A0630A465A61FB6803F580636C
:1031C8009B6803F00103002B0CBF01230023DBB233
:1031D8007B77BB685B785A01FB68134403F5A063EF
:1031E8001B68BA6852785101FA680A4402F5A0626D
:1031F80023F000531360BB685B785A01FB681344E3
:1032080003F5A0631B687A7F52071046BA685278A4
:103218005101FA680A4402F5A06203431360BB68CF
:103228005B785A01FB68134403F5A0631B687B6154
:103238007B6923F080437B617B6943F000437B61BA
:10324800BB685B785A01FB68134403F5A0631A4610
:103258007B691360FB79002B4ED1BB68DB78002BB0
:103268004AD1BB681B69002B46D0BB68DB79032BAE
:1032780030D801A252F823F091320008B532000884
:1032880091320008B5320008BB681B6903339B08FC
:103298007B837A8BFB68DB6A9BB29A421CD9FB68FA
:1032A8009B6943F02002FB689A6115E0BB681B69C3
:1032B80003339B087B837A8BFB6803F580631B6968
:1032C8009BB29A420AD9FB689B6943F08062FB680B
:1032D8009A6103E000BF02E000BF00E000BFBB68E6
:1032E800D968BB685A78BB681B6998B200230093F9
:1032F8000346F868FFF730FD002318462037BD461F
:1033080080BD00BF0000F81F80B483B000AF7860B4
:103318007B6803F580635B699BB218460C37BD4632
:103328005DF8047B704780B485B000AF78600B46C9
:10333800FB700023FB60FB785A017B68134403F59C
:10334800A0631B689B0C03F00303002B0BD0FB78D6
:103358005A017B68134403F5A0631B689B0C03F0B8
:103368000303022B5CD1FB785A017B68134403F5F5
:10337800A0631B68FA7851017A680A4402F5A062D2
:1033880043F0804313607B68DB6A03F47F03002B00
:1033980033D1FB785A017B68134403F5A0631B689B
:1033A800FA7851017A680A4402F5A06223F00043D2
:1033B8001360FB785A017B68134403F5A0631B680C
:1033C800FA7851017A680A4402F5A06243F0004392
:1033D8001360FB680133FB60FB68B3F57A7F1DD887
:1033E800FB785A017B68134403F5A0631B6803F05C
:1033F8000043B3F1004FECD06FE0FB785A017B68D3
:10340800134403F5A0631B68FA7851017A680A44EB
:1034180002F5A06243F0004313605EE000BF5CE089
:10342800FB785A017B68134403F5A0631B68FA789C
:1034380051017A680A4402F5A06243F080431360A0
:103448007B6803F580631B699BB2002B33D1FB7843
:103458005A017B68134403F5A0631B68FA7851018D
:103468007A680A4402F5A06223F000431360FB78EF
:103478005A017B68134403F5A0631B68FA7851016D
:103488007A680A4402F5A06243F000431360FB68BF
:103498000133FB60FB68B3F57A7F1DD8FB785A01CE
:1034A8007B68134403F5A0631B6803F00043B3F182
:1034B800004FECD011E0FB785A017B68134403F508
:1034C800A0631B68FA7851017A680A4402F5A06281
:1034D80043F00043136000E000BF00231846143790
:1034E800BD465DF8047B704780B485B000AF786056
:1034F8000B46FB700123FB730023BB60FB7BDB04E3
:103508001A46154B1340FA7851017A680A4402F5B5
:10351800A06243F000431361FB785A017B681344AF
:1035280003F5A0631B68BB60BB6823F08043BB60E6
:10353800BB6843F00043BB60FB785A017B681344C7
:1035480003F5A0631A46BB681360002318461437B6
:10355800BD465DF8047B70470000F81F80B586B053
:1035680000AF786000233B617868FFF7B2FB102159
:103578007868FFF7CBFB7868FFF7DCFB0023FB7567
:103588001FE0FB7D5A017B68134403F5A0631B68A9
:10359800FB60FB6843F08043FB60FB6823F000435B
:1035A800FB60FB6823F40043FB60FB7D5A017B68EA
:1035B800134403F5A0631A46FB681360FB7D0133CF
:1035C800FB75FB7D0F2BDCD90023FB7534E0FB7DFD
:1035D8005A017B68134403F5A0631B68FB60FB6812
:1035E80043F08043FB60FB6843F00043FB60FB68EB
:1035F80023F40043FB60FB7D5A017B68134403F509
:10360800A0631A46FB6813603B6901333B613B6961
:10361800B3F57A7F0CD8FB7D5A017B68134403F518
:10362800A0631B6803F00043B3F1004FECD000E047
:1036380000BFFB7D0133FB75FB7D0F2BC7D97B6872
:1036480003F580631A464FF0FF3353617B684FF0F0
:10365800FF325A617868FFF736FB0023184618379F
:10366800BD4680BD0020704708B521220274202283
:1036780042740022428282820722C28200F0F5FD53
:1036880008BD08B5A1220274212242740022428298
:1036980082820722C28200F0E8FD08BD38B50446E0
:1036A800D0F87433D9694031FFF7EBFF054620B9EC
:1036B800D4F8C433022120469847284638BD38B587
:1036C8000546D0F87433DC69217879B9217BB1B922
:1036D800617BF1B9D5F87433D86928B101F012FDCE
:1036E800D5F874330022DA61002038BD00F0F9FE05
:1036F8002178284600F00CFF00232370E6E72846CF
:1037080000F0EFFE217B284600F002FF0023237320
:10371800DEE7284600F0E5FE617B284600F0F8FE6B
:1037280000236373D6E770B584B0044601230222F0
:10373800114600F0A2FAFF2800F0A18006460146D3
:10374800204600F090FAD4F87453502001F0D2FCCF
:10375800E861D4F87433DD691A2303FB064393F850
:10376800483313F0800F72D16978204600F0BEFE0E
:103778000146287094F81C336A78688902900320FF
:10378800019094F81D030090204600F09AFE002254
:103798002978204601F036FC00231A460A212046E3
:1037A80000F06BFAFF286CD01A2303FB004393F850
:1037B800483313F0800F52D1AB731A2303FB004335
:1037C800B3F84A332B831A2303FB004393F850338F
:1037D80013F0800F4BD1AB731A2303FB0040B0F8F2
:1037E80052332B83A97B204600F080FE6873E97B67
:1037F800204600F07BFE287394F81C33AA7B697B73
:10380800288B02900226019694F81D03009020460A
:1038180000F057FE94F81C33EA7B297B688B0290F2
:10382800019694F81D030090204600F04AFE0026F9
:1038380085F84C603246697B204601F0E3FB32464E
:10384800297B204601F0DEFB304604B070BD6B706A
:103858001A2303FB0646B6F84A336B8184E7EB73F9
:103868001A2303FB0043B3F84A336B83ABE7EB73CC
:103878001A2303FB0040B0F852336B83B2E70220EF
:10388800E3E70220E1E7704730B583B00546D0F89A
:103898007433DC6994F84D30012B03D0022B19D016
:1038A80003B030BD606A228B90420AD9637BE1691C
:1038B80001200090284600F0CBFD022384F84D300B
:1038C800EEE7637BE1690122009282B2284600F0AC
:1038D800BFFDF2E7617B01F081FB012805D00228DA
:1038E800DED1012384F84D30DAE7636A228B9342F4
:1038F8000AD99B1A6362E3691A44E261636A33B1C5
:10390800012384F84D30CBE700236362F6E70023F8
:1039180084F84D302846FFF7B6FFC1E7704738B541
:103928000546D0F87433DC6994F84E30032B02D086
:10393800042B09D038BD237B628B216A00F09EFDE1
:10394800042384F84E30F5E7217B01F047FB01287A
:10395800F0D1217B284601F0F9FA80B2A36A8342AC
:1039680002D0628B824206D3002384F84E30284668
:10397800FFF7D4FFDEE71B1AA362236A184420620C
:10398800032384F84E30D5E7704738B50546D0F89C
:103998007433DC6994F84C30042B04D8DFE803F066
:1039A8004C05163C4300012347E0A16CFFF75CFE81
:1039B800034630B1012840D0042384F84C30012359
:1039C8003BE0022384F84C30012336E004F1400147
:1039D800FFF757FE0346C0B9002384F84C30636CE8
:1039E80023F07F42A16C4B6823F07F439A4201D0B9
:1039F800012322E0226C0B689A4201D001231CE0CB
:103A08002846FFF7C1FF012317E0012815D004233A
:103A180084F84C30012310E0FFF736FF2846FFF703
:103A28007EFF012309E0002100F0C9FC38B900231A
:103A380084F84C30012300E00023184638BD0123E8
:103A4800FBE7002306E003F1DE0200EB820200211F
:103A5800516001330E2BF6D9002304E0C21800216F
:103A680082F81C110133B3F5007FF7D300230370EC
:103A7800437001228270C0F8B83302764021817108
:103A8800437680F81C3380F81D231846704708B524
:103A98000378DBB20A2B00D008BDD0F87433002BB2
:103AA800FAD09B699847F7E770B584B00446437825
:103AB800072B00F2A480DFE803F0042C355E677062
:103AC8008192082100F00FFC18B10125284604B0A6
:103AD80070BD94F82723A2710125657094F81C33F2
:103AE800217902920026019694F81D2300928022E3
:103AF800204600F0E6FC94F81C336179A279029222
:103B0800019694F81D2300923246204600F0D9FC15
:103B1800DCE7122100F0E7FB002872D10223637072
:103B28000125D3E7012100F028FC08B10125CDE7E4
:103B3800022001F080FA012584F81C5303236370E6
:103B48002179A37902930026019694F81D330093F6
:103B58002B468022204600F0B4FC94F81C3361798F
:103B6800A2790292019694F81D23009232462046CB
:103B780000F0A7FCAAE7092100F0CEFB002842D1FB
:103B8800042363700125A1E7B0F8341300F0C4FBE7
:103B9800D8BB05236370012598E790F82E1319B94F
:103BA80006234370012591E7FF2300F58E7200F08C
:103BB800CCFB60BB06236370012587E790F82F13C1
:103BC80019B907234370012580E7FF2300F58E729A
:103BD80000F0BBFBE8B907236370012576E790F88E
:103BE800301309B9002571E7FF2300F58E7200F044
:103BF800ACFB054600283FF469AF012566E70125BF
:103C080064E7012562E7012560E701255EE70125F4
:103C18005CE701255AE798B138B504460D4680F8A7
:103C2800BC230023C0F87433C0F87833FFF709FFCA
:103C38000DB1C4F8C453204601F022F9002038BD64
:103C4800022070470A4651B1D0F878334BB9591C55
:103C5800C0F87813DC3340F8232000207047022096
:103C680070470220704790F836338B4203D980F8AA
:103C78001F13002070470220704770B400240AE028
:103C88001A2505FB060696F843539D4219D0FF2BCB
:103C980017D0013464B2012C15DC26461A2505FB21
:103CA800040595F841538D4201D0FF29F1D11A2519
:103CB80005FB060595F842539542E1D0FF2AE8D165
:103CC800DEE7E0B200E0FF2070BC704710B50446A4
:103CD80001F004F90121204601F086F9002010BD09
:103CE80030B587B0044602238DF817300378DBB26D
:103CF8000A2B43D8DFE803F0064213B04245985632
:103D08005F68A90090F81E33002B37D00123037099
:103D1800C82001F090F9204601F00AF92EE064204D
:103D280001F089F9204601F0F5F884F81D03052310
:103D380023700021204600F0D9FB607180212046C5
:103D480000F0D4FB0146207194F81C33A27902924A
:103D58000025019594F81D2300928022204600F04A
:103D6800B0FB94F81C336179A2790292019594F81A
:103D78001D2300922A46204600F0A3FB002007B02E
:103D880030BDFFF791FE0028F8D1002384F81F33D7
:103D980094F83133012B02D007232370EEE7082370
:103DA8002370EBE7D0F8C433002BE7D00121984704
:103DB80008232370E2E790F8371300F0EFFA0028A1
:103DC800DCD109232370D9E7D0F87833002BD5D07C
:103DD8000023C0F8743373B1D4F874330BB39B6801
:103DE80020469847D0B906232370D4F8C43303215A
:103DF80020469847C2E703F1DC0254F822201179E3
:103E080094F84123914202D00133DBB2E3E703F196
:103E1800DC0254F82220C4F87423F5E70C2323703D
:103E2800ACE70C232370A9E7D0F8743353B11B69AE
:103E380098478DF817009DF81730002B9ED10A235C
:103E480023709BE70C23037098E7D0F87433002B9A
:103E580094D05B69984791E7FFF7F3FDD4F8743382
:103E6800002B8BD0DB68204698470023C4F87433B6
:103E780084E7C0F8B813704708B5D0F8B8330133F1
:103E8800C0F8B833FFF703FE08BD08B503784BB98F
:103E9800012380F81E33D0F8C4330BB104219847AE
:103EA800002008BD0378DBB2012BF9D1022303708F
:103EB800F6E710B5044601F01FF82179204600F016
:103EC80027FB6179204600F023FB002384F81E338A
:103ED800D4F8C43313B1052120469847204600F092
:103EE800FDFF03232370002010BD10B40B7803706E
:103EF8004B7843708B78CC7803EB042343800B79A1
:103F080003714B7943718B798371CB79C371082A1B
:103F180016D90B7A4A7A03EB022303818B7ACA7A81
:103F280003EB022343810B7B4A7B03EB0223838150
:103F38008B7B8373CB7BC3730B7C03744B7C437485
:103F48005DF8044B70470B7803704B7843708B789F
:103F58008370CB78C3700B7903714B7943718B797C
:103F68008371CB79C3710B7A037270470B78037036
:103F78004B7843708B788370CB78C3700B794A7910
:103F880003EB022383808B79837170474378032B7B
:103F980000D070470378023B9A42A8BF1A4692B2F3
:103FA800002393420DD210B4C418A47801F8014B31
:103FB80002339BB29342F7D300230B705DF8044B96
:103FC800704700230B70704730B583B00446037EFA
:103FD800013B0A2B00F2D880DFE803F006103541D8
:103FE80054627E8A9DABC200427900F1100100F054
:103FF800F8F902232376012003B030BD417900F09F
:10400800EDFF012803D0042819D00120F4E7237C10
:10401800E28A4AB113F0800F03D1052323760120E9
:10402800EAE703232376E7E713F0800F03D107239A
:1040380023760120E0E7092323760120DCE70B2320
:1040480023760120D8E7D0F8B833C3810379828971
:10405800816800F0EDF9042323760120CCE701798B
:1040680000F0BCFF012806D0052800F08F80042846
:1040780004D00120C0E709232376F5E70B23237634
:104088000120B9E74379828901250095816800F00C
:10409800B9F9D4F8B833E381062323762846ABE789
:1040A800417900F09BFF012807D0052808D0022895
:1040B8000AD004280CD001209EE7072323769BE72B
:1040C8000C232376032097E705232376012093E723
:1040D8000B23237602208FE703790022114600F094
:1040E800A7F9D4F8B833E38108232376012083E7BE
:1040F800017900F073FF012805D0042807D00528AE
:1041080046D0012078E70D232376002074E70B239F
:104118002376012070E74379012500950022114696
:1041280000F070F9D4F8B833E3810A2323762846DF
:1041380062E7417900F052FF012805D0022807D034
:10414800042809D0012057E70D232376002053E7E0
:104158000923237601204FE70B23237601204BE721
:10416800437E0133DBB24376022B07D9D0F8C43340
:10417800062198470023637602203DE700F0BCFE45
:1041880001202076A07037E7012035E7032033E7C8
:10419800032031E703780A8813440B800378184416
:1041A80070472DE9F04383B00C460B7803704B78C9
:1041B80043708B78C97803EB01234380237903711B
:1041C80063794371A3798371E379C371237A0372A5
:1041D800092A47D905460923ADF806300026012EDD
:1041E80040DC6A88BDF806309A423BD90DF10601D9
:1041F8002046FFF7CFFF04464378042BEFD1B146A2
:104208001A2000FB06F00830284421460230FFF748
:104218009AFE0027B8461A2303FB09539B7B9F424B
:104228001DDA6A88BDF806309A4218D90DF10601E0
:104238002046FFF7AFFF04464378052BEAD108F183
:1042480001081A2000FB09F000EBC80008302844D8
:1042580021460430FFF78AFE01377FB2DAE70136DC
:1042680076B2BCE703B0BDE8F0838378012B03D0B6
:10427800022B09D0012305E08160828101230376A6
:10428800022282701846704710B50446FFF79CFE5C
:10429800034620B1022806D10122A27003E00122C0
:1042A800A27000222276184610BD38B5BDF810500D
:1042B8008478012C04D02A461946FFF7D6FF38BD6A
:1042C80061F07F04047406214174428202F47F4441
:1042D800B4F5407F03D000228282C582EBE740F22A
:1042E80009428282F9E7F0B583B0044600F58E757D
:1042F8000E4600912B464FF480720021FFF7D5FF40
:10430800074610B1384603B0F0BD3246294604F5D9
:104318004870FFF7EAFDF5E7F0B583B004460E46AE
:1043280000F11C0500912B464FF400720021FFF7A5
:10433800BCFF074610B1384603B0F0BD32462946E7
:1043480004F23230FFF72DFFF5E7F0B583B01746DA
:104358001D4600F58E740093234641F440720021F7
:10436800FFF7A3FF064610B1304603B0F0BD2A465A
:1043780039462046FFF70AFEF6E708B58378012B91
:1043880004D000221146FFF770FF08BD0023037414
:104398000522427441828382C382F2E708B583789A
:1043A800012B04D000221146FFF75FFF08BD002350
:1043B80003740922427441828382C382F2E708B5FA
:1043C8008378012B04D000221146FFF74EFF08BD69
:1043D8000223037401234374002343828182C3822E
:1043E800F1E730B585B015460024039408230293FD
:1043F8000191009423462246294600F0D4FD204628
:1044080005B030BD30B585B00C4619469DF8203052
:1044180090F81D5305B100230393029201940123E0
:10442800009300231A4600F0BEFD002005B030BD01
:1044380030B585B01D4600240394029201910122F3
:1044480000922346294600F0AEFD204605B030BD57
:1044580030B585B00C4619469DF8203090F81D53AC
:1044680005B10023039302920194012300930223D0
:10447800002200F098FD002005B030BD30B585B0B1
:104488001D46002403940292019101220092022306
:10449800294600F088FD204605B030BD00230A2BD0
:1044A8000CD803F1DE0200EB8202526812F4004FCE
:1044B80002D00133DBB2F2E798B270474FF6FF70D3
:1044C800704710B584B0BDF8204002949DF81C4098
:1044D80001949DF81840009400F03EFD002004B0BF
:1044E80010BD08B500F051FD002008BD38B50446E0
:1044F8000D46FFF7D3FF4FF6FF73984206D045F4F9
:10450800004500F1DE0304EB83046560C0B238BDEA
:104518000A2906D8DE3100EB81014B68C3F30E038C
:104528004B600020704700002DE9F0478CB0002454
:104538000194514B1A6B42F010021A631A6B02F085
:1045480010020192019A02941A6B42F004021A6353
:104558001A6B02F004020292029A03941A6B42F058
:1045680080021A631A6B02F080020392039A049481
:104578001A6B42F001021A631A6B02F001020492EC
:10458800049A05941A6B42F002021A631A6B02F03D
:1045980002020592059A06941A6B42F008021A6301
:1045A8001B6B03F008030693069B344E2246082132
:1045B8003046FCF74BF9DFF8CC900122114648460B
:1045C800FCF744F9DFF8C08022464FF2100140465C
:1045D800FCF73CF9082707970125089509940A94E0
:1045E80007A93046FCF74EF80795089509940A94F0
:1045F80007A94846FCF746F8079702270897099441
:104608000A944FF0050ACDF82CA007A94846FCF7F4
:1046180039F80423079308940994A9F5806907A930
:104628004846FCF72FF84FF48063079308970994DE
:104638000A94CDF82CA007A94846FCF723F84FF2B6
:1046480010030793089509940A9407A94046FCF7B4
:1046580019F8202307930894099407A94046FCF702
:1046680011F80797064B0893099407A93046FCF7F9
:1046780009F80CB0BDE8F08700380240001002408D
:104688000000121000080240000C0240134B0022E8
:104698001A600368B3F1804F00D07047104B1B6855
:1046A8001A6912F0010FF8D06FF001021A610B4A73
:1046B800012111601A6912F0020FEED06FF00202A8
:1046C8001A615A6B07490A60C2F580325B6B1A445B
:1046D800054B1A60014B00221A60DEE72401002016
:1046E800C0010020AC0000202801002008B50268A5
:1046F800044B9A4200D008BD4FF480410248FCF7B1
:10470800ABF8F8E700040040000C0240FEE70000A8
:1047180008B50C480C4B03600C4B436000238360C6
:10472800C3604FF48042026143618361C3610362E5
:10473800FCF720FE00B908BD40F253110448FFF70A
:10474800E5FF00BFCC00002000540040A086010017
:10475800E052000808B50C480C4B03604FF4007297
:10476800426000238360C3600261094A4261836139
:10477800C3610362FCF7C8FE00B908BD40F26711C7
:104788000448FFF7C3FF00BFFC010020003C0040C5
:1047980000770100E052000808B50E480E4B036090
:1047A8004FF48273436000238360C36003614361F5
:1047B8004FF400728261C3610362436283620A2319
:1047C800C362FDF75BFD00B908BD40F27F110348E5
:1047D800FFF79CFF6801002000300140E05200080C
:1047E80000B58FB02648274B0360002343608360E1
:1047F80040F21F32C2600361FEF734F830BB0EA9E5
:104808004FF4805341F8103D1D48FDF787FE10BB5B
:104818001B48FEF740F818BB00230893099308A922
:104828001748FEF7E7F900BB6023019300220292C4
:1048380002230393059201A91148FEF72FF9C8B97D
:104848000F4800F039FA0FB05DF804FB4FF4E1713E
:104858000D48FFF75BFF4FF4E4710B48FFF756FF75
:1048680040F2CD110848FFF751FF4FF4EA710648AE
:10487800FFF74CFF40F2DD110348FFF747FF00BF89
:104888002C01002000040040E052000800B58BB065
:1048980025484FF0804303604AF2104343600023E9
:1048A8008360224AC2600361FDF7DCFF10BB0AA9DE
:1048B8004FF4805341F8103D1B48FDF72FFEF0B927
:1048C8001948FEF701F8F8B900230493059304A9E1
:1048D8001548FEF78FF9E0B90022009201230193F1
:1048E8000292039269461048FEF746F8B0B90BB039
:1048F8005DF804FB40F293110D48FFF707FF40F203
:1049080099110B48FFF702FF4FF4CF710848FFF7E2
:10491800FDFE40F2A5110648FFF7F8FE4FF4D771E7
:104928000348FFF7F3FE00BFC0010020A086010086
:10493800E052000800B599B000210191344B1A6C7F
:1049480042F080521A641B6C03F080530193019B60
:104958000291304B1A6842F480421A601B6803F4D3
:1049680080430293029B01230C934FF480330D93F1
:10497800022312934FF480021392082214924FF4E8
:10498800A87215921693072317930CA8FDF798F8A9
:1049980070BB0F23079302230893002309934FF456
:1049A800A0530A934FF480530B93052107A8FDF7F2
:1049B800BFFA10BB01230393C0230493022305937A
:1049C80003A8FDF777FBE8B9FDF75EFB124BA3FBE5
:1049D80000308009FBF72AFE0420FBF73DFE002289
:1049E80011464FF0FF30FBF7E1FD19B05DF804FB0D
:1049F80040F21F110948FFF789FE40F22D110748C0
:104A0800FFF784FE40F235110448FFF77FFE00BF30
:104A18000038024000700040D34D6210E052000898
:104A280008B5FBF771FDFFF785FFFFF77DFDFFF781
:104A38006FFEFFF78FFEFFF7AFFE00F0B3F9FFF749
:104A4800CFFEFFF723FF00210A48FEF7A4F80A4B20
:104A580000221A60074B1B685A6A084B5A60084BB9
:104A68001A68084B93FBF2F3074A136000F0B0F999
:104A7800F0E700BFC001002024010020AC000020A6
:104A88002801002040420F002001002010B582B00C
:104A980000240094214B5A6C42F480425A645A6CA8
:104AA80002F480420092009A01941A6C42F08052FB
:104AB8001A641B6C03F080530193019B0720FBF7DA
:104AC80063FD224621466FF00B00FBF76FFD22467F
:104AD80021466FF00A00FBF769FD224621466FF078
:104AE8000900FBF763FD224621466FF00400FBF73F
:104AF8005DFD224621466FF00300FBF757FD224675
:104B080021466FF00100FBF751FD224621464FF088
:104B1800FF30FBF74BFD02B010BD00BF003802406C
:104B28000268114B9A4200D0704710B586B04FF416
:104B38001073019312230293012303930024049416
:104B4800042305930DEB03010848FBF79BFD009434
:104B5800074B1A6C42F400121A641B6C03F400131E
:104B68000093009B06B010BD0054004000040240B2
:104B7800003802400268164B9A4200D0704770B560
:104B880086B00024009403F5FE331A6C42F4004208
:104B98001A641B6C03F400430093009B10230193D9
:104BA80002260296039404940625059501A909484E
:104BB800FBF768FD4FF4A453019302960394049401
:104BC800059501A90448FBF75DFD06B070BD00BF5F
:104BD800003C004000000240000802400268104B00
:104BE8009A4200D0704700B587B0002300930D4A61
:104BF800516C41F480515164526C02F4805200921D
:104C0800009AE02201920222029203930493052360
:104C1800059301A90448FBF735FD07B05DF804FBCF
:104C280000300140003802400000024010B588B052
:104C38000368B3F1804F04D01C4A934222D008B0D5
:104C480010BD0024019403F50E331A6C42F00102E2
:104C58001A641B6C03F001030193019B0123039366
:104C68000222049205940694079303A91048FBF7BF
:104C780009FD224621461C20FBF798FC1C20FBF767
:104C8800C9FCDCE7002102910A4B1A6C42F00202CF
:104C98001A641B6C03F002030293029B0A461D2050
:104CA800FBF784FC1D20FBF7B5FCC8E700040040B7
:104CB800000002400038024002680A4B9A4200D0C5
:104CC800704700B587B04023019302230293002266
:104CD80003920492059301A90348FBF7D3FC07B09C
:104CE8005DF804FB0004004000080240704770476C
:104CF80008B5FBF723FCFBF7C0FC08BD08B5024864
:104D0800FDF793FC08BD00BFC001002008B50248AC
:104D1800FDF78BFC08BD00BF2C01002008B5024838
:104D2800FCF742FA08BD00BF0C0600200F49D1F875
:104D3800883043F47003C1F888300D4B1A6842F08C
:104D480001021A60002098601A6822F0847222F426
:104D580080321A60074A5A601A6822F480221A6060
:104D6800D8604FF000638B60704700BF00ED00E033
:104D7800003802401030002404290CD0052902D044
:104D8800022904D07047064B03221A707047044B5F
:104D980002221A707047024B01221A70F2E700BF14
:104DA800B800002010B5074C012207492046FEF73D
:104DB80032FF06492046FEF745FF2046FEF786FFEC
:104DC80010BD00BF44020020814D000808000020EB
:104DD80008B50248FEF784FF08BD00BF4402002062
:104DE8000368B3F1A04F00D0704730B587B04FF4D7
:104DF80000730193002402940394154D01A92846D9
:104E0800FBF740FC4FF4E053019302230293039411
:104E180004940A23059301A92846FBF733FC0D4B9C
:104E28005A6B42F080025A6300945A6C42F48042F2
:104E38005A645B6C03F480430093009B224621462E
:104E48004320FBF7B3FB4320FBF7E4FB07B030BD7F
:104E5800000002400038024008B5D0F89402FFF77D
:104E68000BF808BD08B5D0F89402FFF70EF808BD96
:104E780008B5D0F89402FFF71CF808BD7047000089
:104E880090F8BC33012B01D00020704710B50446C0
:104E98001048C0F89442C4F8C0034FF0A043036020
:104EA800082383600323C360002303610222826115
:104EB800C361FBF75EFD40B90648FCF750FA0146AE
:104EC8002046FEF7D6FF002010BDE2210248FFF77A
:104ED8001DFCF1E70C060020F052000808B5D0F8D8
:104EE800C003FCF702FA18B1022803D0022008BD5B
:104EF8000020FCE70120FAE708B5D0F8C003FCF76A
:104F08000AFA18B1022803D0022008BD0020FCE7E5
:104F18000120FAE708B5D0F8C003FCF725FA18B164
:104F2800022803D0012008BD0020FCE70220FAE790
:104F380008B5D0F8C003FCF700FA18B1022803D06E
:104F4800022008BD0020FCE70120FAE708B5D0F8E8
:104F5800C003FCF7FEF908BD10B584B0D0F8C00353
:104F6800BDF8204002949DF81C4001949DF818401B
:104F78000094FBF7B3FC20B1022804D0022004B04F
:104F880010BD0020FBE70120F9E708B5D0F8C00301
:104F9800FBF7DDFC18B1022803D0022008BD002071
:104FA800FCE70120FAE710B584B0D0F8C0039DF8FB
:104FB80024400394BDF820400294079C01949DF876
:104FC80018400094FBF711FD20B1022804D00220FC
:104FD80004B010BD0020FBE70120F9E708B5D0F8C0
:104FE800C003FCF7AFF908BD08B590F8BC33012B36
:104FF80004D0C820FBF7B4FA002008BD084600F02A
:105008001FF8F6E710B4D0F8C03301EB8104E000D4
:105018000446184490F83B0048B901EB8101C800E8
:10502800034483F8512000205DF8044B7047234463
:1050380083F85020F7E708B5FBF792FA08BD00009F
:1050480008B528B1002201210248FBF7FFFB08BD83
:105058000122F8E700080240DFF834D0002103E01D
:105068000C4B5B58435004310B480C4B42189A4286
:10507800F6D30B4A02E0002342F8043B094B9A425C
:10508800F9D3FFF753FE00F011F8FFF7C9FC70479A
:1050980000000220145300080000002090000020A7
:1050A80090000020A8080020FEE7000070B50D4E13
:1050B8000D4CA41BA4100025A54209D10B4E0C4C85
:1050C80000F0F0F8A41BA4100025A54205D170BD7E
:1050D80056F8253098470135EEE756F825309847B9
:1050E8000135F2E70C5300080C5300080C53000874
:1050F80010530008024B0146186800F059B800BF69
:105108002C000020024B0146186800F003B800BFCD
:105118002C00002038B50546002945D051F8043C3C
:105128000C1F002BB8BFE41800F0ACF81F4A136836
:10513800104633B9636014602846BDE8384000F073
:10514800A2B8A3420CD921686218934204BF1A6816
:105158005B68636004BF521822600460ECE7134682
:105168005A680AB1A242FAD919685818A0420BD154
:1051780020680144581882421960DDD110685268CD
:105188005A6001441960D7E702D90C232B60D3E792
:10519800206821188A4204BF11685268626004BFFF
:1051A800091821605C60C7E738BD00BFBC0000205B
:1051B80070B5CD1C25F0030508350C2D38BF0C251E
:1051C800002D064601DBA94203D90C2333600020D9
:1051D80070BD00F057F8214A1468214691B9204C57
:1051E80023681BB9304600F03DF820602946304658
:1051F80000F038F8431C24D10C233360304600F00B
:1052080042F8E4E70B685B1B18D40B2B0FD90B6033
:10521800CD50CC18304600F036F804F10B00231DB1
:1052280020F00700C31AD3D05A42E250D0E78C428C
:105238004B6816BF636013600C46EBE70C46496881
:10524800CCE7C41C24F00304A04205D0211A304640
:1052580000F008F80130CFD02560DBE7BC00002063
:10526800C000002038B5064C0023054608462360D8
:1052780000F00AF8431C02D1236803B12B6038BD43
:10528800A408002070477047044A05491368002B9A
:1052980008BF0B461844106018467047C400002029
:1052A800A8080020F8B500BFF8BC08BC9E467047A7
:0C52B800F8B500BFF8BC08BC9E4670476B
:1052C40000000000000000000102030406070809B2
:1052D4000000000001020304434443002E2E2F5318
:1052E40072632F6D61696E2E630000002E2E2F53A2
:1052F40072632F757362685F636F6E662E6300005E
:08530400F4AEFF7F0100000080
:04530C00AD010008E7
:045310008901000807
:105314000100000010000000DC5200080200000040
:105324002F370008C7360008A5360008933900084F
:105334006D360008000000000024F4003000002056
:105344000000000000000000000000000000000059
:105354000000000000000000000000000000000049
:105364000000000000000000000000000000000039
:105374000000000000000000000000000000000029
:105384000000000000000000000000000000000019
:105394000000000000000000000000000000000009
:04000005080050613E
:00000001FF
